{
  "_format": "hh-sol-artifact-1",
  "contractName": "CupidPayment",
  "sourceName": "contracts/CupidPayment.sol",
  "abi": [
    {
      "inputs": [
        {
          "internalType": "address",
          "name": "_registry",
          "type": "address"
        }
      ],
      "stateMutability": "nonpayable",
      "type": "constructor"
    },
    {
      "anonymous": false,
      "inputs": [
        {
          "indexed": true,
          "internalType": "address",
          "name": "from",
          "type": "address"
        },
        {
          "indexed": false,
          "internalType": "string",
          "name": "receiverId",
          "type": "string"
        },
        {
          "indexed": false,
          "internalType": "uint256",
          "name": "amount",
          "type": "uint256"
        },
        {
          "indexed": false,
          "internalType": "string",
          "name": "destChain",
          "type": "string"
        }
      ],
      "name": "PaymentSent",
      "type": "event"
    },
    {
      "inputs": [],
      "name": "registry",
      "outputs": [
        {
          "internalType": "contract ICupidRegistry",
          "name": "",
          "type": "address"
        }
      ],
      "stateMutability": "view",
      "type": "function"
    },
    {
      "inputs": [
        {
          "internalType": "string",
          "name": "receiverId",
          "type": "string"
        },
        {
          "internalType": "string",
          "name": "destChain",
          "type": "string"
        }
      ],
      "name": "sendPayment",
      "outputs": [],
      "stateMutability": "payable",
      "type": "function"
    }
  ],
  "bytecode": "0x608060405234801561001057600080fd5b506040516107eb3803806107eb833981810160405281019061003291906100db565b806000806101000a81548173ffffffffffffffffffffffffffffffffffffffff021916908373ffffffffffffffffffffffffffffffffffffffff16021790555050610108565b600080fd5b600073ffffffffffffffffffffffffffffffffffffffff82169050919050565b60006100a88261007d565b9050919050565b6100b88161009d565b81146100c357600080fd5b50565b6000815190506100d5816100af565b92915050565b6000602082840312156100f1576100f0610078565b5b60006100ff848285016100c6565b91505092915050565b6106d4806101176000396000f3fe6080604052600436106100295760003560e01c8063221c94b61461002e5780637b1039991461004a575b600080fd5b610048600480360381019061004391906103a1565b610075565b005b34801561005657600080fd5b5061005f610223565b60405161006c9190610498565b60405180910390f35b60008060009054906101000a900473ffffffffffffffffffffffffffffffffffffffff1673ffffffffffffffffffffffffffffffffffffffff166398d7a7c684846040518363ffffffff1660e01b81526004016100d3929190610532565b602060405180830381865afa1580156100f0573d6000803e3d6000fd5b505050506040513d601f19601f8201168201806040525081019061011491906105a7565b9050600073ffffffffffffffffffffffffffffffffffffffff168173ffffffffffffffffffffffffffffffffffffffff1603610185576040517f08c379a000000000000000000000000000000000000000000000000000000000815260040161017c90610620565b60405180910390fd5b8073ffffffffffffffffffffffffffffffffffffffff166108fc349081150290604051600060405180830381858888f193505050501580156101cb573d6000803e3d6000fd5b503373ffffffffffffffffffffffffffffffffffffffff167f5a62a8b69a5fffb9f8c6300386bd058818cb34457bc44d6e4a090029542aaad584348560405161021693929190610659565b60405180910390a2505050565b60008054906101000a900473ffffffffffffffffffffffffffffffffffffffff1681565b6000604051905090565b600080fd5b600080fd5b600080fd5b600080fd5b6000601f19601f8301169050919050565b7f4e487b7100000000000000000000000000000000000000000000000000000000600052604160045260246000fd5b6102ae82610265565b810181811067ffffffffffffffff821117156102cd576102cc610276565b5b80604052505050565b60006102e0610247565b90506102ec82826102a5565b919050565b600067ffffffffffffffff82111561030c5761030b610276565b5b61031582610265565b9050602081019050919050565b82818337600083830152505050565b600061034461033f846102f1565b6102d6565b9050828152602081018484840111156103605761035f610260565b5b61036b848285610322565b509392505050565b600082601f8301126103885761038761025b565b5b8135610398848260208601610331565b91505092915050565b600080604083850312156103b8576103b7610251565b5b600083013567ffffffffffffffff8111156103d6576103d5610256565b5b6103e285828601610373565b925050602083013567ffffffffffffffff81111561040357610402610256565b5b61040f85828601610373565b9150509250929050565b600073ffffffffffffffffffffffffffffffffffffffff82169050919050565b6000819050919050565b600061045e61045961045484610419565b610439565b610419565b9050919050565b600061047082610443565b9050919050565b600061048282610465565b9050919050565b61049281610477565b82525050565b60006020820190506104ad6000830184610489565b92915050565b600081519050919050565b600082825260208201905092915050565b60005b838110156104ed5780820151818401526020810190506104d2565b60008484015250505050565b6000610504826104b3565b61050e81856104be565b935061051e8185602086016104cf565b61052781610265565b840191505092915050565b6000604082019050818103600083015261054c81856104f9565b9050818103602083015261056081846104f9565b90509392505050565b600061057482610419565b9050919050565b61058481610569565b811461058f57600080fd5b50565b6000815190506105a18161057b565b92915050565b6000602082840312156105bd576105bc610251565b5b60006105cb84828501610592565b91505092915050565b7f496e76616c696420494400000000000000000000000000000000000000000000600082015250565b600061060a600a836104be565b9150610615826105d4565b602082019050919050565b60006020820190508181036000830152610639816105fd565b9050919050565b6000819050919050565b61065381610640565b82525050565b6000606082019050818103600083015261067381866104f9565b9050610682602083018561064a565b818103604083015261069481846104f9565b905094935050505056fea2646970667358221220d76c4d3954373a918ea25b01d6c5e7887396dd8040262352673b1274f9c7f43664736f6c63430008140033",
  "linkReferences": {},
  "deployedLinkReferences": {}
}