{"contracts/CupidIDRegistry.sol":{"CupidIDRegistry":{"abi":[{"anonymous":false,"inputs":[{"indexed":true,"internalType":"string","name":"id","type":"string"},{"indexed":false,"internalType":"address","name":"ethereum","type":"address"},{"indexed":false,"internalType":"address","name":"polygon","type":"address"}],"name":"IDRegistered","type":"event"},{"inputs":[{"internalType":"string","name":"id","type":"string"},{"internalType":"address","name":"ethAddr","type":"address"},{"internalType":"address","name":"polyAddr","type":"address"}],"name":"registerID","outputs":[],"stateMutability":"nonpayable","type":"function"},{"inputs":[{"internalType":"string","name":"id","type":"string"},{"internalType":"string","name":"chain","type":"string"}],"name":"resolve","outputs":[{"internalType":"address","name":"","type":"address"}],"stateMutability":"view","type":"function"}],"evm":{"bytecode":{"linkReferences":{},"object":"608060405234801561001057600080fd5b50610761806100206000396000f3fe608060405234801561001057600080fd5b50600436106100365760003560e01c806398d7a7c61461003b578063990509e11461006b575b600080fd5b6100556004803603810190610050919061048e565b610087565b6040516100629190610547565b60405180910390f35b6100856004803603810190610080919061058e565b6101f0565b005b60006040518060400160405280600881526020017f657468657265756d0000000000000000000000000000000000000000000000008152508051906020012082805190602001200361011c576000836040516100e3919061066e565b908152602001604051809103902060000160009054906101000a900473ffffffffffffffffffffffffffffffffffffffff1690506101ea565b6040518060400160405280600781526020017f706f6c79676f6e00000000000000000000000000000000000000000000000000815250805190602001208280519060200120036101af57600083604051610176919061066e565b908152602001604051809103902060010160009054906101000a900473ffffffffffffffffffffffffffffffffffffffff1690506101ea565b6040517f08c379a00000000000000000000000000000000000000000000000000000000081526004016101e1906106e2565b60405180910390fd5b92915050565b60405180604001604052808373ffffffffffffffffffffffffffffffffffffffff1681526020018273ffffffffffffffffffffffffffffffffffffffff16815250600084604051610241919061066e565b908152602001604051809103902060008201518160000160006101000a81548173ffffffffffffffffffffffffffffffffffffffff021916908373ffffffffffffffffffffffffffffffffffffffff16021790555060208201518160010160006101000a81548173ffffffffffffffffffffffffffffffffffffffff021916908373ffffffffffffffffffffffffffffffffffffffff160217905550905050826040516102ee919061066e565b60405180910390207fec953c5bc572518edaf13c88c3096f9c52065862d8d6d09cc4107f61891afdc28383604051610327929190610702565b60405180910390a2505050565b6000604051905090565b600080fd5b600080fd5b600080fd5b600080fd5b6000601f19601f8301169050919050565b7f4e487b7100000000000000000000000000000000000000000000000000000000600052604160045260246000fd5b61039b82610352565b810181811067ffffffffffffffff821117156103ba576103b9610363565b5b80604052505050565b60006103cd610334565b90506103d98282610392565b919050565b600067ffffffffffffffff8211156103f9576103f8610363565b5b61040282610352565b9050602081019050919050565b82818337600083830152505050565b600061043161042c846103de565b6103c3565b90508281526020810184848401111561044d5761044c61034d565b5b61045884828561040f565b509392505050565b600082601f83011261047557610474610348565b5b813561048584826020860161041e565b91505092915050565b600080604083850312156104a5576104a461033e565b5b600083013567ffffffffffffffff8111156104c3576104c2610343565b5b6104cf85828601610460565b925050602083013567ffffffffffffffff8111156104f0576104ef610343565b5b6104fc85828601610460565b9150509250929050565b600073ffffffffffffffffffffffffffffffffffffffff82169050919050565b600061053182610506565b9050919050565b61054181610526565b82525050565b600060208201905061055c6000830184610538565b92915050565b61056b81610526565b811461057657600080fd5b50565b60008135905061058881610562565b92915050565b6000806000606084860312156105a7576105a661033e565b5b600084013567ffffffffffffffff8111156105c5576105c4610343565b5b6105d186828701610460565b93505060206105e286828701610579565b92505060406105f386828701610579565b9150509250925092565b600081519050919050565b600081905092915050565b60005b83811015610631578082015181840152602081019050610616565b60008484015250505050565b6000610648826105fd565b6106528185610608565b9350610662818560208601610613565b80840191505092915050565b600061067a828461063d565b915081905092915050565b600082825260208201905092915050565b7f556e737570706f7274656420636861696e000000000000000000000000000000600082015250565b60006106cc601183610685565b91506106d782610696565b602082019050919050565b600060208201905081810360008301526106fb816106bf565b9050919050565b60006040820190506107176000830185610538565b6107246020830184610538565b939250505056fea26469706673582212209f20e31bfba2d9b739d41429236916c1e5cdb5506aeb8f31f1267bf0cc2da73364736f6c63430008140033","opcodes":"PUSH1 0x80 PUSH1 0x40 MSTORE CALLVALUE DUP1 ISZERO PUSH2 0x10 JUMPI PUSH1 0x0 DUP1 REVERT JUMPDEST POP PUSH2 0x761 DUP1 PUSH2 0x20 PUSH1 0x0 CODECOPY PUSH1 0x0 RETURN INVALID PUSH1 0x80 PUSH1 0x40 MSTORE CALLVALUE DUP1 ISZERO PUSH2 0x10 JUMPI PUSH1 0x0 DUP1 REVERT JUMPDEST POP PUSH1 0x4 CALLDATASIZE LT PUSH2 0x36 JUMPI PUSH1 0x0 CALLDATALOAD PUSH1 0xE0 SHR DUP1 PUSH4 0x98D7A7C6 EQ PUSH2 0x3B JUMPI DUP1 PUSH4 0x990509E1 EQ PUSH2 0x6B JUMPI JUMPDEST PUSH1 0x0 DUP1 REVERT JUMPDEST PUSH2 0x55 PUSH1 0x4 DUP1 CALLDATASIZE SUB DUP2 ADD SWAP1 PUSH2 0x50 SWAP2 SWAP1 PUSH2 0x48E JUMP JUMPDEST PUSH2 0x87 JUMP JUMPDEST PUSH1 0x40 MLOAD PUSH2 0x62 SWAP2 SWAP1 PUSH2 0x547 JUMP JUMPDEST PUSH1 0x40 MLOAD DUP1 SWAP2 SUB SWAP1 RETURN JUMPDEST PUSH2 0x85 PUSH1 0x4 DUP1 CALLDATASIZE SUB DUP2 ADD SWAP1 PUSH2 0x80 SWAP2 SWAP1 PUSH2 0x58E JUMP JUMPDEST PUSH2 0x1F0 JUMP JUMPDEST STOP JUMPDEST PUSH1 0x0 PUSH1 0x40 MLOAD DUP1 PUSH1 0x40 ADD PUSH1 0x40 MSTORE DUP1 PUSH1 0x8 DUP2 MSTORE PUSH1 0x20 ADD PUSH32 0x657468657265756D000000000000000000000000000000000000000000000000 DUP2 MSTORE POP DUP1 MLOAD SWAP1 PUSH1 0x20 ADD KECCAK256 DUP3 DUP1 MLOAD SWAP1 PUSH1 0x20 ADD KECCAK256 SUB PUSH2 0x11C JUMPI PUSH1 0x0 DUP4 PUSH1 0x40 MLOAD PUSH2 0xE3 SWAP2 SWAP1 PUSH2 0x66E JUMP JUMPDEST SWAP1 DUP2 MSTORE PUSH1 0x20 ADD PUSH1 0x40 MLOAD DUP1 SWAP2 SUB SWAP1 KECCAK256 PUSH1 0x0 ADD PUSH1 0x0 SWAP1 SLOAD SWAP1 PUSH2 0x100 EXP SWAP1 DIV PUSH20 0xFFFFFFFFFFFFFFFFFFFFFFFFFFFFFFFFFFFFFFFF AND SWAP1 POP PUSH2 0x1EA JUMP JUMPDEST PUSH1 0x40 MLOAD DUP1 PUSH1 0x40 ADD PUSH1 0x40 MSTORE DUP1 PUSH1 0x7 DUP2 MSTORE PUSH1 0x20 ADD PUSH32 0x706F6C79676F6E00000000000000000000000000000000000000000000000000 DUP2 MSTORE POP DUP1 MLOAD SWAP1 PUSH1 0x20 ADD KECCAK256 DUP3 DUP1 MLOAD SWAP1 PUSH1 0x20 ADD KECCAK256 SUB PUSH2 0x1AF JUMPI PUSH1 0x0 DUP4 PUSH1 0x40 MLOAD PUSH2 0x176 SWAP2 SWAP1 PUSH2 0x66E JUMP JUMPDEST SWAP1 DUP2 MSTORE PUSH1 0x20 ADD PUSH1 0x40 MLOAD DUP1 SWAP2 SUB SWAP1 KECCAK256 PUSH1 0x1 ADD PUSH1 0x0 SWAP1 SLOAD SWAP1 PUSH2 0x100 EXP SWAP1 DIV PUSH20 0xFFFFFFFFFFFFFFFFFFFFFFFFFFFFFFFFFFFFFFFF AND SWAP1 POP PUSH2 0x1EA JUMP JUMPDEST PUSH1 0x40 MLOAD PUSH32 0x8C379A000000000000000000000000000000000000000000000000000000000 DUP2 MSTORE PUSH1 0x4 ADD PUSH2 0x1E1 SWAP1 PUSH2 0x6E2 JUMP JUMPDEST PUSH1 0x40 MLOAD DUP1 SWAP2 SUB SWAP1 REVERT JUMPDEST SWAP3 SWAP2 POP POP JUMP JUMPDEST PUSH1 0x40 MLOAD DUP1 PUSH1 0x40 ADD PUSH1 0x40 MSTORE DUP1 DUP4 PUSH20 0xFFFFFFFFFFFFFFFFFFFFFFFFFFFFFFFFFFFFFFFF AND DUP2 MSTORE PUSH1 0x20 ADD DUP3 PUSH20 0xFFFFFFFFFFFFFFFFFFFFFFFFFFFFFFFFFFFFFFFF AND DUP2 MSTORE POP PUSH1 0x0 DUP5 PUSH1 0x40 MLOAD PUSH2 0x241 SWAP2 SWAP1 PUSH2 0x66E JUMP JUMPDEST SWAP1 DUP2 MSTORE PUSH1 0x20 ADD PUSH1 0x40 MLOAD DUP1 SWAP2 SUB SWAP1 KECCAK256 PUSH1 0x0 DUP3 ADD MLOAD DUP2 PUSH1 0x0 ADD PUSH1 0x0 PUSH2 0x100 EXP DUP2 SLOAD DUP2 PUSH20 0xFFFFFFFFFFFFFFFFFFFFFFFFFFFFFFFFFFFFFFFF MUL NOT AND SWAP1 DUP4 PUSH20 0xFFFFFFFFFFFFFFFFFFFFFFFFFFFFFFFFFFFFFFFF AND MUL OR SWAP1 SSTORE POP PUSH1 0x20 DUP3 ADD MLOAD DUP2 PUSH1 0x1 ADD PUSH1 0x0 PUSH2 0x100 EXP DUP2 SLOAD DUP2 PUSH20 0xFFFFFFFFFFFFFFFFFFFFFFFFFFFFFFFFFFFFFFFF MUL NOT AND SWAP1 DUP4 PUSH20 0xFFFFFFFFFFFFFFFFFFFFFFFFFFFFFFFFFFFFFFFF AND MUL OR SWAP1 SSTORE POP SWAP1 POP POP DUP3 PUSH1 0x40 MLOAD PUSH2 0x2EE SWAP2 SWAP1 PUSH2 0x66E JUMP JUMPDEST PUSH1 0x40 MLOAD DUP1 SWAP2 SUB SWAP1 KECCAK256 PUSH32 0xEC953C5BC572518EDAF13C88C3096F9C52065862D8D6D09CC4107F61891AFDC2 DUP4 DUP4 PUSH1 0x40 MLOAD PUSH2 0x327 SWAP3 SWAP2 SWAP1 PUSH2 0x702 JUMP JUMPDEST PUSH1 0x40 MLOAD DUP1 SWAP2 SUB SWAP1 LOG2 POP POP POP JUMP JUMPDEST PUSH1 0x0 PUSH1 0x40 MLOAD SWAP1 POP SWAP1 JUMP JUMPDEST PUSH1 0x0 DUP1 REVERT JUMPDEST PUSH1 0x0 DUP1 REVERT JUMPDEST PUSH1 0x0 DUP1 REVERT JUMPDEST PUSH1 0x0 DUP1 REVERT JUMPDEST PUSH1 0x0 PUSH1 0x1F NOT PUSH1 0x1F DUP4 ADD AND SWAP1 POP SWAP2 SWAP1 POP JUMP JUMPDEST PUSH32 0x4E487B7100000000000000000000000000000000000000000000000000000000 PUSH1 0x0 MSTORE PUSH1 0x41 PUSH1 0x4 MSTORE PUSH1 0x24 PUSH1 0x0 REVERT JUMPDEST PUSH2 0x39B DUP3 PUSH2 0x352 JUMP JUMPDEST DUP2 ADD DUP2 DUP2 LT PUSH8 0xFFFFFFFFFFFFFFFF DUP3 GT OR ISZERO PUSH2 0x3BA JUMPI PUSH2 0x3B9 PUSH2 0x363 JUMP JUMPDEST JUMPDEST DUP1 PUSH1 0x40 MSTORE POP POP POP JUMP JUMPDEST PUSH1 0x0 PUSH2 0x3CD PUSH2 0x334 JUMP JUMPDEST SWAP1 POP PUSH2 0x3D9 DUP3 DUP3 PUSH2 0x392 JUMP JUMPDEST SWAP2 SWAP1 POP JUMP JUMPDEST PUSH1 0x0 PUSH8 0xFFFFFFFFFFFFFFFF DUP3 GT ISZERO PUSH2 0x3F9 JUMPI PUSH2 0x3F8 PUSH2 0x363 JUMP JUMPDEST JUMPDEST PUSH2 0x402 DUP3 PUSH2 0x352 JUMP JUMPDEST SWAP1 POP PUSH1 0x20 DUP2 ADD SWAP1 POP SWAP2 SWAP1 POP JUMP JUMPDEST DUP3 DUP2 DUP4 CALLDATACOPY PUSH1 0x0 DUP4 DUP4 ADD MSTORE POP POP POP JUMP JUMPDEST PUSH1 0x0 PUSH2 0x431 PUSH2 0x42C DUP5 PUSH2 0x3DE JUMP JUMPDEST PUSH2 0x3C3 JUMP JUMPDEST SWAP1 POP DUP3 DUP2 MSTORE PUSH1 0x20 DUP2 ADD DUP5 DUP5 DUP5 ADD GT ISZERO PUSH2 0x44D JUMPI PUSH2 0x44C PUSH2 0x34D JUMP JUMPDEST JUMPDEST PUSH2 0x458 DUP5 DUP3 DUP6 PUSH2 0x40F JUMP JUMPDEST POP SWAP4 SWAP3 POP POP POP JUMP JUMPDEST PUSH1 0x0 DUP3 PUSH1 0x1F DUP4 ADD SLT PUSH2 0x475 JUMPI PUSH2 0x474 PUSH2 0x348 JUMP JUMPDEST JUMPDEST DUP2 CALLDATALOAD PUSH2 0x485 DUP5 DUP3 PUSH1 0x20 DUP7 ADD PUSH2 0x41E JUMP JUMPDEST SWAP2 POP POP SWAP3 SWAP2 POP POP JUMP JUMPDEST PUSH1 0x0 DUP1 PUSH1 0x40 DUP4 DUP6 SUB SLT ISZERO PUSH2 0x4A5 JUMPI PUSH2 0x4A4 PUSH2 0x33E JUMP JUMPDEST JUMPDEST PUSH1 0x0 DUP4 ADD CALLDATALOAD PUSH8 0xFFFFFFFFFFFFFFFF DUP2 GT ISZERO PUSH2 0x4C3 JUMPI PUSH2 0x4C2 PUSH2 0x343 JUMP JUMPDEST JUMPDEST PUSH2 0x4CF DUP6 DUP3 DUP7 ADD PUSH2 0x460 JUMP JUMPDEST SWAP3 POP POP PUSH1 0x20 DUP4 ADD CALLDATALOAD PUSH8 0xFFFFFFFFFFFFFFFF DUP2 GT ISZERO PUSH2 0x4F0 JUMPI PUSH2 0x4EF PUSH2 0x343 JUMP JUMPDEST JUMPDEST PUSH2 0x4FC DUP6 DUP3 DUP7 ADD PUSH2 0x460 JUMP JUMPDEST SWAP2 POP POP SWAP3 POP SWAP3 SWAP1 POP JUMP JUMPDEST PUSH1 0x0 PUSH20 0xFFFFFFFFFFFFFFFFFFFFFFFFFFFFFFFFFFFFFFFF DUP3 AND SWAP1 POP SWAP2 SWAP1 POP JUMP JUMPDEST PUSH1 0x0 PUSH2 0x531 DUP3 PUSH2 0x506 JUMP JUMPDEST SWAP1 POP SWAP2 SWAP1 POP JUMP JUMPDEST PUSH2 0x541 DUP2 PUSH2 0x526 JUMP JUMPDEST DUP3 MSTORE POP POP JUMP JUMPDEST PUSH1 0x0 PUSH1 0x20 DUP3 ADD SWAP1 POP PUSH2 0x55C PUSH1 0x0 DUP4 ADD DUP5 PUSH2 0x538 JUMP JUMPDEST SWAP3 SWAP2 POP POP JUMP JUMPDEST PUSH2 0x56B DUP2 PUSH2 0x526 JUMP JUMPDEST DUP2 EQ PUSH2 0x576 JUMPI PUSH1 0x0 DUP1 REVERT JUMPDEST POP JUMP JUMPDEST PUSH1 0x0 DUP2 CALLDATALOAD SWAP1 POP PUSH2 0x588 DUP2 PUSH2 0x562 JUMP JUMPDEST SWAP3 SWAP2 POP POP JUMP JUMPDEST PUSH1 0x0 DUP1 PUSH1 0x0 PUSH1 0x60 DUP5 DUP7 SUB SLT ISZERO PUSH2 0x5A7 JUMPI PUSH2 0x5A6 PUSH2 0x33E JUMP JUMPDEST JUMPDEST PUSH1 0x0 DUP5 ADD CALLDATALOAD PUSH8 0xFFFFFFFFFFFFFFFF DUP2 GT ISZERO PUSH2 0x5C5 JUMPI PUSH2 0x5C4 PUSH2 0x343 JUMP JUMPDEST JUMPDEST PUSH2 0x5D1 DUP7 DUP3 DUP8 ADD PUSH2 0x460 JUMP JUMPDEST SWAP4 POP POP PUSH1 0x20 PUSH2 0x5E2 DUP7 DUP3 DUP8 ADD PUSH2 0x579 JUMP JUMPDEST SWAP3 POP POP PUSH1 0x40 PUSH2 0x5F3 DUP7 DUP3 DUP8 ADD PUSH2 0x579 JUMP JUMPDEST SWAP2 POP POP SWAP3 POP SWAP3 POP SWAP3 JUMP JUMPDEST PUSH1 0x0 DUP2 MLOAD SWAP1 POP SWAP2 SWAP1 POP JUMP JUMPDEST PUSH1 0x0 DUP2 SWAP1 POP SWAP3 SWAP2 POP POP JUMP JUMPDEST PUSH1 0x0 JUMPDEST DUP4 DUP2 LT ISZERO PUSH2 0x631 JUMPI DUP1 DUP3 ADD MLOAD DUP2 DUP5 ADD MSTORE PUSH1 0x20 DUP2 ADD SWAP1 POP PUSH2 0x616 JUMP JUMPDEST PUSH1 0x0 DUP5 DUP5 ADD MSTORE POP POP POP POP JUMP JUMPDEST PUSH1 0x0 PUSH2 0x648 DUP3 PUSH2 0x5FD JUMP JUMPDEST PUSH2 0x652 DUP2 DUP6 PUSH2 0x608 JUMP JUMPDEST SWAP4 POP PUSH2 0x662 DUP2 DUP6 PUSH1 0x20 DUP7 ADD PUSH2 0x613 JUMP JUMPDEST DUP1 DUP5 ADD SWAP2 POP POP SWAP3 SWAP2 POP POP JUMP JUMPDEST PUSH1 0x0 PUSH2 0x67A DUP3 DUP5 PUSH2 0x63D JUMP JUMPDEST SWAP2 POP DUP2 SWAP1 POP SWAP3 SWAP2 POP POP JUMP JUMPDEST PUSH1 0x0 DUP3 DUP3 MSTORE PUSH1 0x20 DUP3 ADD SWAP1 POP SWAP3 SWAP2 POP POP JUMP JUMPDEST PUSH32 0x556E737570706F7274656420636861696E000000000000000000000000000000 PUSH1 0x0 DUP3 ADD MSTORE POP JUMP JUMPDEST PUSH1 0x0 PUSH2 0x6CC PUSH1 0x11 DUP4 PUSH2 0x685 JUMP JUMPDEST SWAP2 POP PUSH2 0x6D7 DUP3 PUSH2 0x696 JUMP JUMPDEST PUSH1 0x20 DUP3 ADD SWAP1 POP SWAP2 SWAP1 POP JUMP JUMPDEST PUSH1 0x0 PUSH1 0x20 DUP3 ADD SWAP1 POP DUP2 DUP2 SUB PUSH1 0x0 DUP4 ADD MSTORE PUSH2 0x6FB DUP2 PUSH2 0x6BF JUMP JUMPDEST SWAP1 POP SWAP2 SWAP1 POP JUMP JUMPDEST PUSH1 0x0 PUSH1 0x40 DUP3 ADD SWAP1 POP PUSH2 0x717 PUSH1 0x0 DUP4 ADD DUP6 PUSH2 0x538 JUMP JUMPDEST PUSH2 0x724 PUSH1 0x20 DUP4 ADD DUP5 PUSH2 0x538 JUMP JUMPDEST SWAP4 SWAP3 POP POP POP JUMP INVALID LOG2 PUSH5 0x6970667358 0x22 SLT KECCAK256 SWAP16 KECCAK256 0xE3 SHL 0xFB LOG2 0xD9 0xB7 CODECOPY 0xD4 EQ 0x29 0x23 PUSH10 0x16C1E5CDB5506AEB8F31 CALL 0x26 PUSH28 0xF0CC2DA73364736F6C63430008140033000000000000000000000000 "},"methodIdentifiers":{"registerID(string,address,address)":"990509e1","resolve(string,string)":"98d7a7c6"}}}}}