{
  "_format": "hh-sol-artifact-1",
  "contractName": "CupidIDRegistry",
  "sourceName": "contracts/CupidIDRegistry.sol",
  "abi": [
    {
      "anonymous": false,
      "inputs": [
        {
          "indexed": true,
          "internalType": "string",
          "name": "id",
          "type": "string"
        },
        {
          "indexed": false,
          "internalType": "address",
          "name": "ethereum",
          "type": "address"
        },
        {
          "indexed": false,
          "internalType": "address",
          "name": "polygon",
          "type": "address"
        }
      ],
      "name": "IDRegistered",
      "type": "event"
    },
    {
      "inputs": [
        {
          "internalType": "string",
          "name": "id",
          "type": "string"
        },
        {
          "internalType": "address",
          "name": "ethAddr",
          "type": "address"
        },
        {
          "internalType": "address",
          "name": "polyAddr",
          "type": "address"
        }
      ],
      "name": "registerID",
      "outputs": [],
      "stateMutability": "nonpayable",
      "type": "function"
    },
    {
      "inputs": [
        {
          "internalType": "string",
          "name": "id",
          "type": "string"
        },
        {
          "internalType": "string",
          "name": "chain",
          "type": "string"
        }
      ],
      "name": "resolve",
      "outputs": [
        {
          "internalType": "address",
          "name": "",
          "type": "address"
        }
      ],
      "stateMutability": "view",
      "type": "function"
    }
  ],
  "bytecode": "0x608060405234801561001057600080fd5b50610761806100206000396000f3fe608060405234801561001057600080fd5b50600436106100365760003560e01c806398d7a7c61461003b578063990509e11461006b575b600080fd5b6100556004803603810190610050919061048e565b610087565b6040516100629190610547565b60405180910390f35b6100856004803603810190610080919061058e565b6101f0565b005b60006040518060400160405280600881526020017f657468657265756d0000000000000000000000000000000000000000000000008152508051906020012082805190602001200361011c576000836040516100e3919061066e565b908152602001604051809103902060000160009054906101000a900473ffffffffffffffffffffffffffffffffffffffff1690506101ea565b6040518060400160405280600781526020017f706f6c79676f6e00000000000000000000000000000000000000000000000000815250805190602001208280519060200120036101af57600083604051610176919061066e565b908152602001604051809103902060010160009054906101000a900473ffffffffffffffffffffffffffffffffffffffff1690506101ea565b6040517f08c379a00000000000000000000000000000000000000000000000000000000081526004016101e1906106e2565b60405180910390fd5b92915050565b60405180604001604052808373ffffffffffffffffffffffffffffffffffffffff1681526020018273ffffffffffffffffffffffffffffffffffffffff16815250600084604051610241919061066e565b908152602001604051809103902060008201518160000160006101000a81548173ffffffffffffffffffffffffffffffffffffffff021916908373ffffffffffffffffffffffffffffffffffffffff16021790555060208201518160010160006101000a81548173ffffffffffffffffffffffffffffffffffffffff021916908373ffffffffffffffffffffffffffffffffffffffff160217905550905050826040516102ee919061066e565b60405180910390207fec953c5bc572518edaf13c88c3096f9c52065862d8d6d09cc4107f61891afdc28383604051610327929190610702565b60405180910390a2505050565b6000604051905090565b600080fd5b600080fd5b600080fd5b600080fd5b6000601f19601f8301169050919050565b7f4e487b7100000000000000000000000000000000000000000000000000000000600052604160045260246000fd5b61039b82610352565b810181811067ffffffffffffffff821117156103ba576103b9610363565b5b80604052505050565b60006103cd610334565b90506103d98282610392565b919050565b600067ffffffffffffffff8211156103f9576103f8610363565b5b61040282610352565b9050602081019050919050565b82818337600083830152505050565b600061043161042c846103de565b6103c3565b90508281526020810184848401111561044d5761044c61034d565b5b61045884828561040f565b509392505050565b600082601f83011261047557610474610348565b5b813561048584826020860161041e565b91505092915050565b600080604083850312156104a5576104a461033e565b5b600083013567ffffffffffffffff8111156104c3576104c2610343565b5b6104cf85828601610460565b925050602083013567ffffffffffffffff8111156104f0576104ef610343565b5b6104fc85828601610460565b9150509250929050565b600073ffffffffffffffffffffffffffffffffffffffff82169050919050565b600061053182610506565b9050919050565b61054181610526565b82525050565b600060208201905061055c6000830184610538565b92915050565b61056b81610526565b811461057657600080fd5b50565b60008135905061058881610562565b92915050565b6000806000606084860312156105a7576105a661033e565b5b600084013567ffffffffffffffff8111156105c5576105c4610343565b5b6105d186828701610460565b93505060206105e286828701610579565b92505060406105f386828701610579565b9150509250925092565b600081519050919050565b600081905092915050565b60005b83811015610631578082015181840152602081019050610616565b60008484015250505050565b6000610648826105fd565b6106528185610608565b9350610662818560208601610613565b80840191505092915050565b600061067a828461063d565b915081905092915050565b600082825260208201905092915050565b7f556e737570706f7274656420636861696e000000000000000000000000000000600082015250565b60006106cc601183610685565b91506106d782610696565b602082019050919050565b600060208201905081810360008301526106fb816106bf565b9050919050565b60006040820190506107176000830185610538565b6107246020830184610538565b939250505056fea26469706673582212209f20e31bfba2d9b739d41429236916c1e5cdb5506aeb8f31f1267bf0cc2da73364736f6c63430008140033",
  "linkReferences": {},
  "deployedLinkReferences": {}
}